{
  "contractName": "KryptoBird",
  "abi": [
    {
      "inputs": [],
      "stateMutability": "nonpayable",
      "type": "constructor"
    },
    {
      "anonymous": false,
      "inputs": [
        {
          "indexed": true,
          "internalType": "address",
          "name": "_owner",
          "type": "address"
        },
        {
          "indexed": true,
          "internalType": "address",
          "name": "_approved",
          "type": "address"
        },
        {
          "indexed": true,
          "internalType": "uint256",
          "name": "_tokenId",
          "type": "uint256"
        }
      ],
      "name": "Approval",
      "type": "event"
    },
    {
      "anonymous": false,
      "inputs": [
        {
          "indexed": true,
          "internalType": "address",
          "name": "_from",
          "type": "address"
        },
        {
          "indexed": true,
          "internalType": "address",
          "name": "_to",
          "type": "address"
        },
        {
          "indexed": true,
          "internalType": "uint256",
          "name": "_tokenId",
          "type": "uint256"
        }
      ],
      "name": "Transfer",
      "type": "event"
    },
    {
      "inputs": [
        {
          "internalType": "address",
          "name": "_to",
          "type": "address"
        },
        {
          "internalType": "uint256",
          "name": "tokenId",
          "type": "uint256"
        }
      ],
      "name": "approve",
      "outputs": [],
      "stateMutability": "nonpayable",
      "type": "function"
    },
    {
      "inputs": [
        {
          "internalType": "address",
          "name": "_owner",
          "type": "address"
        }
      ],
      "name": "balanceOf",
      "outputs": [
        {
          "internalType": "uint256",
          "name": "",
          "type": "uint256"
        }
      ],
      "stateMutability": "view",
      "type": "function",
      "constant": true
    },
    {
      "inputs": [
        {
          "internalType": "uint256",
          "name": "",
          "type": "uint256"
        }
      ],
      "name": "kryptoBirdz",
      "outputs": [
        {
          "internalType": "string",
          "name": "",
          "type": "string"
        }
      ],
      "stateMutability": "view",
      "type": "function",
      "constant": true
    },
    {
      "inputs": [],
      "name": "name",
      "outputs": [
        {
          "internalType": "string",
          "name": "",
          "type": "string"
        }
      ],
      "stateMutability": "view",
      "type": "function",
      "constant": true
    },
    {
      "inputs": [
        {
          "internalType": "uint256",
          "name": "_tokenId",
          "type": "uint256"
        }
      ],
      "name": "ownerOf",
      "outputs": [
        {
          "internalType": "address",
          "name": "",
          "type": "address"
        }
      ],
      "stateMutability": "view",
      "type": "function",
      "constant": true
    },
    {
      "inputs": [
        {
          "internalType": "bytes4",
          "name": "interfaceID",
          "type": "bytes4"
        }
      ],
      "name": "registerInterface",
      "outputs": [],
      "stateMutability": "nonpayable",
      "type": "function"
    },
    {
      "inputs": [
        {
          "internalType": "bytes4",
          "name": "interfaceID",
          "type": "bytes4"
        }
      ],
      "name": "supportsInterface",
      "outputs": [
        {
          "internalType": "bool",
          "name": "",
          "type": "bool"
        }
      ],
      "stateMutability": "view",
      "type": "function",
      "constant": true
    },
    {
      "inputs": [],
      "name": "symbol",
      "outputs": [
        {
          "internalType": "string",
          "name": "",
          "type": "string"
        }
      ],
      "stateMutability": "view",
      "type": "function",
      "constant": true
    },
    {
      "inputs": [
        {
          "internalType": "uint256",
          "name": "index",
          "type": "uint256"
        }
      ],
      "name": "tokenByIndex",
      "outputs": [
        {
          "internalType": "uint256",
          "name": "",
          "type": "uint256"
        }
      ],
      "stateMutability": "view",
      "type": "function",
      "constant": true
    },
    {
      "inputs": [
        {
          "internalType": "address",
          "name": "owner",
          "type": "address"
        },
        {
          "internalType": "uint256",
          "name": "index",
          "type": "uint256"
        }
      ],
      "name": "tokenOfOwnerByIndex",
      "outputs": [
        {
          "internalType": "uint256",
          "name": "",
          "type": "uint256"
        }
      ],
      "stateMutability": "view",
      "type": "function",
      "constant": true
    },
    {
      "inputs": [],
      "name": "totalSupply",
      "outputs": [
        {
          "internalType": "uint256",
          "name": "",
          "type": "uint256"
        }
      ],
      "stateMutability": "view",
      "type": "function",
      "constant": true
    },
    {
      "inputs": [
        {
          "internalType": "address",
          "name": "_from",
          "type": "address"
        },
        {
          "internalType": "address",
          "name": "_to",
          "type": "address"
        },
        {
          "internalType": "uint256",
          "name": "_tokenId",
          "type": "uint256"
        }
      ],
      "name": "transferFrom",
      "outputs": [],
      "stateMutability": "nonpayable",
      "type": "function"
    },
    {
      "inputs": [
        {
          "internalType": "string",
          "name": "_kryptoBird",
          "type": "string"
        }
      ],
      "name": "mint",
      "outputs": [],
      "stateMutability": "nonpayable",
      "type": "function"
    }
  ],
  "bytecode": "0x60806040523480156200001157600080fd5b506040518060400160405280600a81526020017f4b727970746f42697264000000000000000000000000000000000000000000008152506040518060400160405280600681526020017f4b424952445a00000000000000000000000000000000000000000000000000008152508181620000b17fef1944359420a6bbd215d6bd24cd95ee210dd78bbad1070c64ac8c2b3246b6d36200022a60201b60201c565b620001047f13b182f4c0e5b2efbac0efe6cf6d756c8b89f4b79c5707a043ed9ea740574ee97f7feaf19471f34a12a7eaf32d5f3090aa2260ea8624dc8a138e74e0bf0f623076186200022a60201b60201c565b81600190805190602001906200011c92919062000301565b5080600290805190602001906200013592919062000301565b505050620001ad7f22c82707ba960a14c7592ffb6b8cfaa073fed0048a84cc7fa41f6b5bd8e7f2e47f3a6eb71757dfc6e784c1459d26270140c2c147d95ca985c80026fc5301c3eca17f8a7e378434598edc36d108689a030cbc9d7d465de4f74c71bae1028eed6a881b18186200022a60201b60201c565b620002227f8230223f691b981717299fae9549350a0d894555723531f02108b1f522c1a7977fe003f605c2b8d36ea20553d39b366862df2cacda9a51a4297c3d29649eff1e177fc53637662700e6c65104059db8bba34439e0c32483ab7c34e3ccae52c739549518186200022a60201b60201c565b505062000498565b63ffffffff60e01b817bffffffffffffffffffffffffffffffffffffffffffffffffffffffff19160362000295576040517f08c379a00000000000000000000000000000000000000000000000000000000081526004016200028c9062000412565b60405180910390fd5b6001600080837bffffffffffffffffffffffffffffffffffffffffffffffffffffffff19167bffffffffffffffffffffffffffffffffffffffffffffffffffffffff1916815260200190815260200160002060006101000a81548160ff02191690831515021790555050565b8280546200030f9062000463565b90600052602060002090601f0160209004810192826200033357600085556200037f565b82601f106200034e57805160ff19168380011785556200037f565b828001600101855582156200037f579182015b828111156200037e57825182559160200191906001019062000361565b5b5090506200038e919062000392565b5090565b5b80821115620003ad57600081600090555060010162000393565b5090565b600082825260208201905092915050565b7f4552433136352056414c554520495320494e56414c4944205245515545535400600082015250565b6000620003fa601f83620003b1565b91506200040782620003c2565b602082019050919050565b600060208201905081810360008301526200042d81620003eb565b9050919050565b7f4e487b7100000000000000000000000000000000000000000000000000000000600052602260045260246000fd5b600060028204905060018216806200047c57607f821691505b60208210810362000492576200049162000434565b5b50919050565b611f8980620004a86000396000f3fe608060405234801561001057600080fd5b50600436106100cf5760003560e01c80632f745c591161008c57806370a082311161006657806370a082311461022457806393ab6e561461025457806395d89b4114610284578063d85d3d27146102a2576100cf565b80632f745c59146101945780634f6ccce7146101c45780636352211e146101f4576100cf565b806301ffc9a7146100d457806306fdde0314610104578063095ea7b31461012257806318160ddd1461013e578063214cdb801461015c57806323b872dd14610178575b600080fd5b6100ee60048036038101906100e991906112e7565b6102be565b6040516100fb919061132f565b60405180910390f35b61010c610325565b60405161011991906113e3565b60405180910390f35b61013c60048036038101906101379190611499565b6103b7565b005b610146610552565b60405161015391906114e8565b60405180910390f35b610176600480360381019061017191906112e7565b61055f565b005b610192600480360381019061018d9190611503565b610633565b005b6101ae60048036038101906101a99190611499565b610656565b6040516101bb91906114e8565b60405180910390f35b6101de60048036038101906101d99190611556565b610706565b6040516101eb91906114e8565b60405180910390f35b61020e60048036038101906102099190611556565b610777565b60405161021b9190611592565b60405180910390f35b61023e600480360381019061023991906115ad565b610828565b60405161024b91906114e8565b60405180910390f35b61026e60048036038101906102699190611556565b6108df565b60405161027b91906113e3565b60405180910390f35b61028c61098b565b60405161029991906113e3565b60405180910390f35b6102bc60048036038101906102b7919061170f565b610a1d565b005b6000806000837bffffffffffffffffffffffffffffffffffffffffffffffffffffffff19167bffffffffffffffffffffffffffffffffffffffffffffffffffffffff1916815260200190815260200160002060009054906101000a900460ff169050919050565b60606001805461033490611787565b80601f016020809104026020016040519081016040528092919081815260200182805461036090611787565b80156103ad5780601f10610382576101008083540402835291602001916103ad565b820191906000526020600020905b81548152906001019060200180831161039057829003601f168201915b5050505050905090565b60006103c282610777565b90508073ffffffffffffffffffffffffffffffffffffffff168373ffffffffffffffffffffffffffffffffffffffff1603610432576040517f08c379a00000000000000000000000000000000000000000000000000000000081526004016104299061182a565b60405180910390fd5b8073ffffffffffffffffffffffffffffffffffffffff163373ffffffffffffffffffffffffffffffffffffffff16146104a0576040517f08c379a000000000000000000000000000000000000000000000000000000000815260040161049790611896565b60405180910390fd5b826005600084815260200190815260200160002060006101000a81548173ffffffffffffffffffffffffffffffffffffffff021916908373ffffffffffffffffffffffffffffffffffffffff160217905550818373ffffffffffffffffffffffffffffffffffffffff168273ffffffffffffffffffffffffffffffffffffffff167f8c5be1e5ebec7d5bd14f71427d1e84f3dd0314c0f7b2291e5b200ac8c7c3b92560405160405180910390a4505050565b6000600680549050905090565b63ffffffff60e01b817bffffffffffffffffffffffffffffffffffffffffffffffffffffffff1916036105c7576040517f08c379a00000000000000000000000000000000000000000000000000000000081526004016105be90611902565b60405180910390fd5b6001600080837bffffffffffffffffffffffffffffffffffffffffffffffffffffffff19167bffffffffffffffffffffffffffffffffffffffffffffffffffffffff1916815260200190815260200160002060006101000a81548160ff02191690831515021790555050565b61063d3382610b20565b61064657600080fd5b610651838383610baf565b505050565b600061066183610828565b82106106a2576040517f08c379a00000000000000000000000000000000000000000000000000000000081526004016106999061196e565b60405180910390fd5b600860008473ffffffffffffffffffffffffffffffffffffffff1673ffffffffffffffffffffffffffffffffffffffff16815260200190815260200160002082815481106106f3576106f261198e565b5b9060005260206000200154905092915050565b6000610710610552565b8210610751576040517f08c379a000000000000000000000000000000000000000000000000000000000815260040161074890611a09565b60405180910390fd5b600682815481106107655761076461198e565b5b90600052602060002001549050919050565b6000806003600084815260200190815260200160002060009054906101000a900473ffffffffffffffffffffffffffffffffffffffff169050600073ffffffffffffffffffffffffffffffffffffffff168173ffffffffffffffffffffffffffffffffffffffff160361081f576040517f08c379a000000000000000000000000000000000000000000000000000000000815260040161081690611a9b565b60405180910390fd5b80915050919050565b60008073ffffffffffffffffffffffffffffffffffffffff168273ffffffffffffffffffffffffffffffffffffffff1603610898576040517f08c379a000000000000000000000000000000000000000000000000000000000815260040161088f90611b2d565b60405180910390fd5b600460008373ffffffffffffffffffffffffffffffffffffffff1673ffffffffffffffffffffffffffffffffffffffff168152602001908152602001600020549050919050565b600a81815481106108ef57600080fd5b90600052602060002001600091509050805461090a90611787565b80601f016020809104026020016040519081016040528092919081815260200182805461093690611787565b80156109835780601f1061095857610100808354040283529160200191610983565b820191906000526020600020905b81548152906001019060200180831161096657829003601f168201915b505050505081565b60606002805461099a90611787565b80601f01602080910402602001604051908101604052809291908181526020018280546109c690611787565b8015610a135780601f106109e857610100808354040283529160200191610a13565b820191906000526020600020905b8154815290600101906020018083116109f657829003601f168201915b5050505050905090565b600b81604051610a2d9190611b89565b908152602001604051809103902060009054906101000a900460ff1615610a89576040517f08c379a0000000000000000000000000000000000000000000000000000000008152600401610a8090611bec565b60405180910390fd5b600a81908060018154018082558091505060019003906000526020600020016000909190919091509080519060200190610ac49291906111d8565b5060006001600a80549050610ad99190611c3b565b9050610ae53382610e77565b6001600b83604051610af79190611b89565b908152602001604051809103902060006101000a81548160ff0219169083151502179055505050565b6000610b2b82610eb5565b610b6a576040517f08c379a0000000000000000000000000000000000000000000000000000000008152600401610b6190611cbb565b60405180910390fd5b6000610b7583610777565b90508073ffffffffffffffffffffffffffffffffffffffff168473ffffffffffffffffffffffffffffffffffffffff161491505092915050565b600073ffffffffffffffffffffffffffffffffffffffff168273ffffffffffffffffffffffffffffffffffffffff1603610c1e576040517f08c379a0000000000000000000000000000000000000000000000000000000008152600401610c1590611d4d565b60405180910390fd5b8273ffffffffffffffffffffffffffffffffffffffff16610c3e82610777565b73ffffffffffffffffffffffffffffffffffffffff1614610c94576040517f08c379a0000000000000000000000000000000000000000000000000000000008152600401610c8b90611ddf565b60405180910390fd5b816003600083815260200190815260200160002060006101000a81548173ffffffffffffffffffffffffffffffffffffffff021916908373ffffffffffffffffffffffffffffffffffffffff1602179055506001600460008573ffffffffffffffffffffffffffffffffffffffff1673ffffffffffffffffffffffffffffffffffffffff1681526020019081526020016000206000828254610d369190611c3b565b925050819055506001600460008473ffffffffffffffffffffffffffffffffffffffff1673ffffffffffffffffffffffffffffffffffffffff1681526020019081526020016000206000828254610d8d9190611dff565b92505081905550600460008373ffffffffffffffffffffffffffffffffffffffff1673ffffffffffffffffffffffffffffffffffffffff16815260200190815260200160002054600460008573ffffffffffffffffffffffffffffffffffffffff1673ffffffffffffffffffffffffffffffffffffffff16815260200190815260200160002081905550808273ffffffffffffffffffffffffffffffffffffffff168473ffffffffffffffffffffffffffffffffffffffff167fddf252ad1be2c89b69c2b068fc378daa952ba7f163c4a11628f55a4df523b3ef60405160405180910390a4505050565b610e818282610f27565b6006805490506007600083815260200190815260200160002081905550610ea7816110e8565b610eb18282611114565b5050565b6000806003600084815260200190815260200160002060009054906101000a900473ffffffffffffffffffffffffffffffffffffffff169050600073ffffffffffffffffffffffffffffffffffffffff168173ffffffffffffffffffffffffffffffffffffffff161415915050919050565b600073ffffffffffffffffffffffffffffffffffffffff168273ffffffffffffffffffffffffffffffffffffffff1603610f96576040517f08c379a0000000000000000000000000000000000000000000000000000000008152600401610f8d90611ec7565b60405180910390fd5b610f9f81610eb5565b15610fdf576040517f08c379a0000000000000000000000000000000000000000000000000000000008152600401610fd690611f33565b60405180910390fd5b816003600083815260200190815260200160002060006101000a81548173ffffffffffffffffffffffffffffffffffffffff021916908373ffffffffffffffffffffffffffffffffffffffff1602179055506001600460008473ffffffffffffffffffffffffffffffffffffffff1673ffffffffffffffffffffffffffffffffffffffff16815260200190815260200160002060008282546110819190611dff565b92505081905550808273ffffffffffffffffffffffffffffffffffffffff16600073ffffffffffffffffffffffffffffffffffffffff167fddf252ad1be2c89b69c2b068fc378daa952ba7f163c4a11628f55a4df523b3ef60405160405180910390a45050565b600681908060018154018082558091505060019003906000526020600020016000909190919091505550565b600860008373ffffffffffffffffffffffffffffffffffffffff1673ffffffffffffffffffffffffffffffffffffffff168152602001908152602001600020819080600181540180825580915050600190039060005260206000200160009091909190915055600860008373ffffffffffffffffffffffffffffffffffffffff1673ffffffffffffffffffffffffffffffffffffffff1681526020019081526020016000208054905060096000838152602001908152602001600020819055505050565b8280546111e490611787565b90600052602060002090601f016020900481019282611206576000855561124d565b82601f1061121f57805160ff191683800117855561124d565b8280016001018555821561124d579182015b8281111561124c578251825591602001919060010190611231565b5b50905061125a919061125e565b5090565b5b8082111561127757600081600090555060010161125f565b5090565b6000604051905090565b600080fd5b600080fd5b60007fffffffff0000000000000000000000000000000000000000000000000000000082169050919050565b6112c48161128f565b81146112cf57600080fd5b50565b6000813590506112e1816112bb565b92915050565b6000602082840312156112fd576112fc611285565b5b600061130b848285016112d2565b91505092915050565b60008115159050919050565b61132981611314565b82525050565b60006020820190506113446000830184611320565b92915050565b600081519050919050565b600082825260208201905092915050565b60005b83811015611384578082015181840152602081019050611369565b83811115611393576000848401525b50505050565b6000601f19601f8301169050919050565b60006113b58261134a565b6113bf8185611355565b93506113cf818560208601611366565b6113d881611399565b840191505092915050565b600060208201905081810360008301526113fd81846113aa565b905092915050565b600073ffffffffffffffffffffffffffffffffffffffff82169050919050565b600061143082611405565b9050919050565b61144081611425565b811461144b57600080fd5b50565b60008135905061145d81611437565b92915050565b6000819050919050565b61147681611463565b811461148157600080fd5b50565b6000813590506114938161146d565b92915050565b600080604083850312156114b0576114af611285565b5b60006114be8582860161144e565b92505060206114cf85828601611484565b9150509250929050565b6114e281611463565b82525050565b60006020820190506114fd60008301846114d9565b92915050565b60008060006060848603121561151c5761151b611285565b5b600061152a8682870161144e565b935050602061153b8682870161144e565b925050604061154c86828701611484565b9150509250925092565b60006020828403121561156c5761156b611285565b5b600061157a84828501611484565b91505092915050565b61158c81611425565b82525050565b60006020820190506115a76000830184611583565b92915050565b6000602082840312156115c3576115c2611285565b5b60006115d18482850161144e565b91505092915050565b600080fd5b600080fd5b7f4e487b7100000000000000000000000000000000000000000000000000000000600052604160045260246000fd5b61161c82611399565b810181811067ffffffffffffffff8211171561163b5761163a6115e4565b5b80604052505050565b600061164e61127b565b905061165a8282611613565b919050565b600067ffffffffffffffff82111561167a576116796115e4565b5b61168382611399565b9050602081019050919050565b82818337600083830152505050565b60006116b26116ad8461165f565b611644565b9050828152602081018484840111156116ce576116cd6115df565b5b6116d9848285611690565b509392505050565b600082601f8301126116f6576116f56115da565b5b813561170684826020860161169f565b91505092915050565b60006020828403121561172557611724611285565b5b600082013567ffffffffffffffff8111156117435761174261128a565b5b61174f848285016116e1565b91505092915050565b7f4e487b7100000000000000000000000000000000000000000000000000000000600052602260045260246000fd5b6000600282049050600182168061179f57607f821691505b6020821081036117b2576117b1611758565b5b50919050565b7f4572726f72202c20417070726f76616c20746f2063757272656e74206f776e6560008201527f7200000000000000000000000000000000000000000000000000000000000000602082015250565b6000611814602183611355565b915061181f826117b8565b604082019050919050565b6000602082019050818103600083015261184381611807565b9050919050565b7f43757272656e742063616c6c6572206973206e6f7420746865206f776e657200600082015250565b6000611880601f83611355565b915061188b8261184a565b602082019050919050565b600060208201905081810360008301526118af81611873565b9050919050565b7f4552433136352056414c554520495320494e56414c4944205245515545535400600082015250565b60006118ec601f83611355565b91506118f7826118b6565b602082019050919050565b6000602082019050818103600083015261191b816118df565b9050919050565b7f496e64657820696e646578206f7574206f6620626f756e647321000000000000600082015250565b6000611958601a83611355565b915061196382611922565b602082019050919050565b600060208201905081810360008301526119878161194b565b9050919050565b7f4e487b7100000000000000000000000000000000000000000000000000000000600052603260045260246000fd5b7f476c6f62616c20696e646578206f7574206f6620626f756e6473210000000000600082015250565b60006119f3601b83611355565b91506119fe826119bd565b602082019050919050565b60006020820190508181036000830152611a22816119e6565b9050919050565b7f6f776e657220717565727920666f72206e6f6e2d6578697374656e742061646460008201527f7265737300000000000000000000000000000000000000000000000000000000602082015250565b6000611a85602483611355565b9150611a9082611a29565b604082019050919050565b60006020820190508181036000830152611ab481611a78565b9050919050565b7f6f776e657220717565727920666f72206e6f6e2d6578697374656e7420746f6b60008201527f656e000000000000000000000000000000000000000000000000000000000000602082015250565b6000611b17602283611355565b9150611b2282611abb565b604082019050919050565b60006020820190508181036000830152611b4681611b0a565b9050919050565b600081905092915050565b6000611b638261134a565b611b6d8185611b4d565b9350611b7d818560208601611366565b80840191505092915050565b6000611b958284611b58565b915081905092915050565b7f4572726f72202d204b727970746f6269726420616c7265616479206578697473600082015250565b6000611bd6602083611355565b9150611be182611ba0565b602082019050919050565b60006020820190508181036000830152611c0581611bc9565b9050919050565b7f4e487b7100000000000000000000000000000000000000000000000000000000600052601160045260246000fd5b6000611c4682611463565b9150611c5183611463565b925082821015611c6457611c63611c0c565b5b828203905092915050565b7f546f6b656e20646f6573206e6f74206578697374000000000000000000000000600082015250565b6000611ca5601483611355565b9150611cb082611c6f565b602082019050919050565b60006020820190508181036000830152611cd481611c98565b9050919050565b7f4572726f72202d20455243373231205472616e7366657220746f20746865207a60008201527f65726f2061646472657373000000000000000000000000000000000000000000602082015250565b6000611d37602b83611355565b9150611d4282611cdb565b604082019050919050565b60006020820190508181036000830152611d6681611d2a565b9050919050565b7f547279696e6720746f207472616e66657220746f2061206e6f6e2d657869737460008201527f616e742061646472657373000000000000000000000000000000000000000000602082015250565b6000611dc9602b83611355565b9150611dd482611d6d565b604082019050919050565b60006020820190508181036000830152611df881611dbc565b9050919050565b6000611e0a82611463565b9150611e1583611463565b9250827fffffffffffffffffffffffffffffffffffffffffffffffffffffffffffffffff03821115611e4a57611e49611c0c565b5b828201905092915050565b7f4552433732313a204d696e74696e6720746f20746865207a65726f206164647260008201527f6573730000000000000000000000000000000000000000000000000000000000602082015250565b6000611eb1602383611355565b9150611ebc82611e55565b604082019050919050565b60006020820190508181036000830152611ee081611ea4565b9050919050565b7f4552433732313a20546f6b656e20616c7265616479206d696e74656400000000600082015250565b6000611f1d601c83611355565b9150611f2882611ee7565b602082019050919050565b60006020820190508181036000830152611f4c81611f10565b905091905056fea2646970667358221220273818d897acfbc6a90214ab61d78d6ea2d8fef18635add41157c7d153cf485e64736f6c634300080e0033",
  "immutableReferences": {},
  "source": "// SPDX-License-Identifier: MIT\r\npragma solidity ^0.8.0;\r\n\r\nimport './ERC721Connector.sol';\r\n\r\n//Hook up the ERC721Connector to main NFT SMART CONTRACT\r\n\r\ncontract KryptoBird is ERC721Connector {\r\n\r\n    //array t store our nfts\r\n\r\n    string [] public kryptoBirdz;\r\n\r\n    mapping(string => bool)_kryptoBirdExists;\r\n\r\n    function mint(string memory _kryptoBird)public\r\n    {\r\n        require(!_kryptoBirdExists[_kryptoBird], 'Error - Kryptobird already exits');\r\n      //deprecated  uint _id = kryptoRirdz.push(_kryptoBird);\r\n      kryptoBirdz.push(_kryptoBird);\r\n      uint _id = kryptoBirdz.length-1;\r\n    //.push no longer returns the length but a ref to the added element\r\n\r\n    _mint(msg.sender , _id);\r\n    _kryptoBirdExists[_kryptoBird] = true;\r\n\r\n    }\r\n\r\n\r\n\r\n    constructor ()ERC721Connector('KryptoBird','KBIRDZ')\r\n    {}\r\n    \r\n\r\n}\r\n",
  "sourcePath": "C:\\Users\\SEKGOTA\\Desktop\\nft-marketplace-starter-kit\\src\\contracts\\Kryptobird.sol",
  "compiler": {
    "name": "solc",
    "version": "0.8.14+commit.80d49f37.Emscripten.clang"
  },
  "schemaVersion": "3.4.3",
  "updatedAt": "2022-05-22T14:10:07.412Z",
  "networkType": "ethereum",
  "devdoc": {
    "kind": "dev",
    "methods": {
      "supportsInterface(bytes4)": {
        "details": "Interface identification is specified in ERC-165. This function  uses less than 30,000 gas.",
        "params": {
          "interfaceID": "The interface identifier, as specified in ERC-165"
        },
        "returns": {
          "_0": "`true` if the contract implements `interfaceID` and  `interfaceID` is not 0xffffffff, `false` otherwise"
        }
      }
    },
    "version": 1
  },
  "userdoc": {
    "kind": "user",
    "methods": {
      "supportsInterface(bytes4)": {
        "notice": "Query if a contract implements an interface"
      }
    },
    "version": 1
  }
}